:020000040000FA
:10000000C0070020550100008301000085010000A9
:1000100000000000000000000000000000000000E0
:100020000000000000000000000000008701000048
:100030000000000000000000890100008B010000AA
:100040008D0100008D0100008D0100008D01000078
:100050008D0100008D0100008D0100008D01000068
:100060008D0100008D0100008D0100008D01000058
:100070008D0100008D0100008D0100008D01000048
:100080008D0100008D0100008D0100008D01000038
:100090008D0100008D0100008D0100008D01000028
:1000A0008D0100008D0100008D0100008D01000018
:1000B0008D0100008D0100008D0100008D01000008
:1000C0008D0100008D0100008D0100008D010000F8
:1000D0008D0100008D0100008D0100008D010000E8
:1000E0008D0100008D0100008D0100008D010000D8
:1000F0008D0100008D0100008D0100008D010000C8
:100100008D0100008D0100008D0100008D010000B7
:100110008D010000110800008D0100008D0100001C
:100120008D0100008D0100008D0100008D01000097
:100130008D0100008D0100008D0100008D01000087
:100140000348854600F02EF800480047D50B000014
:10015000C00700200E4840F25901016040F216012C
:10016000016040F2880101600A4880470A4A45F66A
:10017000A5211160094A1160054800210160084865
:100180000047FEE7FEE7FEE7FEE7FEE7FEE70000CA
:10019000000100407906000024000040EC0100400E
:1001A00041010000064C0125064E05E0E36807CC3E
:1001B0002B430C3C98471034B442F7D3FFF7C4FFED
:1001C000440D0000640D000010B5054C20680E4978
:1001D0004018044900F088FB4020606010BDC04614
:1001E00020050C4030010020B0B5064C20680649BF
:1001F0004118064D281D00F077FB01202870402093
:100200006060B0BD30050C4000010C40D000002003
:10021000F8B50446B94D00200090012691421AD24B
:10022000EC606960212C01D11F68AF602E61BFF3C3
:100230006F8F2F69FF07FCD12F6878060DD4222C11
:1002400003D140F200200918E8E70CB9A86818604B
:100250001B1D091DE2E70098F8BD2F600020C04378
:10026000F8BDC0460B460146021D0020FFF7D0BF77
:10027000A2490A68082313430B600022CA60486041
:100280008A6001220A618968C0B20F282AD88200D8
:1002900001A39A189746C04600F025B800F01CB894
:1002A00000F01CB800F01CB800F01DB800F014B845
:1002B00000F014B800F014B800F015B800F00CB855
:1002C00000F00CB800F00CB800F00DB800F004B865
:1002D00000F004B800F004B8090A04E0090C02E0D8
:1002E000090E00E0FF21C8B27047C046F0B5834A4E
:1002F000136808241C43146000270E4B2224012598
:1003000040261F608F4213D2D4601F687F023F18BF
:1003100057601561BFF36F8F1769FF07FCD117682E
:100320007F0602D51768374317601F687F1CE8E710
:10033000F0BDC046B0030020FEB5064600786A4F07
:1003400000247C773877B87047F200259A281BD1B3
:100350000020F8707870C0B207280FD82818001D48
:10036000FFF786FF3871C1B27878821952788A42D5
:1003700006D1401C5D29EDD1012002E0F87801E0B2
:100380000020F8707877B8789C2812D10020F87097
:100390007870C0B2072809D82818001DFFF768FF39
:1003A00038717978CA199077481CF1E7012078777D
:1003B000B8789B2826D135464C4E47F2002047F2AC
:1003C0000041324600F018F9012147F20020019166
:1003D000FFF78CFF0295681C00217970082904D072
:1003E000425C73181A71491CF7E7404A47F2002033
:1003F00047F2004100F0E0FB0020F87001987877A8
:10040000B878029E972806D100203921FFF76EFFA9
:1004100001207877B878982806D1012547F2002086
:100420002946FFF763FF7D77F878012858D1B8781F
:1004300099280AD0962853D1701C7C70102C3BD080
:10044000015D3A191173641CF7E7284C47F200204C
:1004500047F20041224600F0CFF8012547F2002084
:100460002946FFF743FF0026267047F2002047F297
:100470000041224600F0A0FB7D77FFF7A5FE7848FB
:1004800000681B4941431B484160866005210160AB
:100490000168C903FCD506601748032101601748AD
:1004A00002688A430260BFF34F8F15481549016007
:1004B000BFF34F8F00BFFDE7387828B901203870AF
:1004C00000203921FFF712FFB8683A460C32014686
:1004D000103100F071FB01207877B8681030B860F7
:1004E000FFF772FE0020FEBD14010020B0010020C5
:1004F0001027000010E000E00400004000C00040B1
:100500000CED00E00400FA051CB540F600010C46B5
:1005100001A92046FFF7A6FE61000028F7D5204676
:100520001CBD0000FEB50446002501910D600320AE
:10053000060502AF30463946FFF794FE3878C0070B
:1005400011D1301D02A9FFF78DFE0A480168029BF8
:10055000DA051A4600D00A468B4200D90A462260C4
:100560000068851A02E00348006820600198056071
:10057000FEBDC046B40300201CB56C46204600F00A
:1005800041F900202156002910D4694649780A29EA
:100590000FD009290AD16946C978032908D15D49D4
:1005A0004A69802313434B6108611CBD00F01CFAAB
:1005B0001CBD58494A68802313434B6008601CBD2A
:1005C0000C480021016040F2202040F2202120311F
:1005D000ED4A9160082111609061116141209062A3
:1005E000102010622220906350201063402050633E
:1005F0007047C04618000C4013460A4601460020CA
:10060000FFF706BE1548016804220A430260016D27
:10061000C906FCD5016907229143016101691143B3
:1006200001610F4930220A600E490F4A0A60112108
:1006300041630121C90682680A43826041680B4A0E
:100640000A4342603F20000609490A6882430A6063
:100650000848016889B201607047C0460002004046
:100660000400002000000020006CDC0214000001E7
:1006700000400040340000400548016840F2031289
:100680000A430C218A430260024803490160704713
:100690004CC0004008ED00E00000000070B5CF4CF9
:1006A000206AC0B1226AB74E33681A4D281F00680D
:1006B00019494018F830E1699A4222D9326800F0AD
:1006C0001BF930682860E06931684018E0613068E3
:1006D000216A081A1CE03820205C58B920463830BE
:1006E0004078052806D10C480268616A12B909B140
:1006F000616A0160607818B106480021016061708C
:1007000070BD226A00F0F8F8206A28600020E061DD
:10071000206270BD04050C4008000C4070B5AF4E5F
:10072000306B716B884215D20B4D6C682868AC49F0
:100730004118F06A224600F0DFF8306B0019306390
:10074000F06A0019F062306B716B884202D28D48FA
:100750000068686070BDC04610050C4030B49F4A08
:10076000002050703B20105CD18F22280BD0022833
:100770001ED0032823D0012839D1122900D31221F9
:100780009069006830E03C20105C800093695C69EF
:100790002458A14209D9EE490968B4FBF1F54D434B
:1007A000611B01D1012151702146DA6810581BE00C
:1007B000906940688378C4782402E31808E03A20FE
:1007C000105C032813D8800093699B68185803783D
:1007D000994209D9DE490968B3FBF1F44C43191B6E
:1007E00001D101215170194630BC00F0A1B87D48FB
:1007F000016802221143016001691143016130BCAB
:100800007047C046E9493831082200F075B8C04643
:1008100070B5344C2568E66868070CD50420206064
:100820002169E068C90703D040F2D071084301E0B4
:1008300080218843E060E80717D001202060F0079E
:1008400006D0E06840F2D0710143E16000F096F913
:10085000B00703D5E06810218843E060700704D535
:10086000E06840F2D0710143E160280701D508201B
:100870002060A80734D5002D0BD50120C1072160C9
:1008800058490A6802430A600A6902430A6100F093
:100890007DF80126E80303D530042060FFF7FEFE53
:1008A000A80303D570042060FFF738FF680301D563
:1008B000B0042060280303D5F0042060FFF794FC07
:1008C000E80201D530052060A80201D5700520603E
:1008D000680201D5B0052060280201D5F00520602E
:1008E00070BDC04604000C400022402A03D08B5C3F
:1008F0008354521CF9E770472AB10B780370401CEF
:10090000491C521EF8E77047A84B9960DA6098615D
:100910000068C0798E490860044840F2D0610160E7
:100920009448016801220A430260704710000C409D
:10093000F8B50C460146864E326829489C4DA242C5
:1009400011D232683368E31A984C2362AB6880276F
:100950001F43AF608A18E2612A6810183268FFF7F7
:10096000CBFF34680CE0914A00231362AE68802705
:100970003743AF60D3612A6810182246FFF7BCFFE7
:100980006C60F8BD2C00002000050C4010B5874CB1
:100990002046383012490822FFF7AEFF3820215C8C
:1009A00060200840402807D0202807D060B910BC3C
:1009B00001BC864600F028B8606800E0A06858B125
:1009C00010BC02BC8E460047064801680222114353
:1009D000016001691143016110BDC0467001002032
:1009E00000010C400C050C400D210648491E07D0A3
:1009F000C26810301207F9D1016802220A4302606E
:100A00007047C046FC040C40FEB5684D00242C62C3
:100A1000EC613820295628463830407800293FD4E8
:100A2000401E082851D8810001A251188F46C046A7
:100A300000F010B800F049B800F050B800F045B828
:100A400000F065B800F041B800F03FB800F03DB8E4
:100A500000F061B83A20285C012869D0002869D1EB
:100A60003C20295C0F221140384B083302200290B1
:100A7000802001900C2C5DD0181F066816408E4215
:100A80000BD16E69E640F60707D11E68029FBE4390
:100A90001E600668019FBE4306601033641CE9E7D0
:100AA0002A4C062809D1FFF759FE00202863686305
:100AB000E862274800682061FEBDA0680221084363
:100AC000A060A0690843A061FEBD204881680222A1
:100AD00011438160816911438161FEBD3A20295C27
:100AE0001A4801292ED0E9B93C216A5C0F231A402B
:100AF000014608390D256D1E14D0CE6810311E40F8
:100B00009642F8D10A68022313430B600AE03A20A8
:100B1000285C686205E03A20285CA862286900B178
:100B200080470A48416880220A4342600460FEBD53
:100B300000202870054A5068802101435160002040
:100B40001060FEBD01212970ECE7C04604050C4091
:100B50002C000020074801680122914301600648EB
:100B600040F2D071016140F20F11416002680A4306
:100B70000260704790000C4000000C4010B50B491B
:100B80000020086208638863C863C861C86248615E
:100B900048630821064A8023C82904D08C589C4306
:100BA0008C501031F8E70349086010BD7001002037
:100BB00000050C4008000C4030B413460A460146BC
:100BC00041480468082525430560212030BCFFF713
:100BD0001FBBC04684B03B4F592016218822386184
:100BE00039613A613B69002BF9D0FFF70BFD364CB8
:100BF0002068012101432160FFF786FC334908602A
:100C000033483449FFF78EFC47F20020FFF730FBF2
:100C1000E0B33148314900242246FFF775FEFFF763
:100C2000CFFCFFF797FFB86A02902D48102103917F
:100C3000016003262C49402000900620019038686E
:100C40003040012808D026480068C00604D5244852
:100C5000039A0260234838600D46B8684007800F49
:100C600007D00298B8623C600198B8601C480399AC
:100C70000160FFF7CDFD294628780128DFD11B4808
:100C80000099FFF759FB29462C70D8E718480068EF
:100C900018494143184841600021816005210160E5
:100CA0000168C903FCD51548032101602068884309
:100CB0002060BFF34F8F124812490160BFF34F8F7E
:100CC00000BFFDE7F000004000C00040B40300207A
:100CD000B8030020BC030020280D000079050000A7
:100CE00004000C4001060A00D0000020D4000020BF
:100CF00004000020E093040010E000E00400004045
:100D00000CED00E00400FA0502E008C8121F08C15B
:100D1000002AFAD170477047002001E001C1121F7C
:100D2000002AFBD1704700008D00002064000020E5
:100D300030000020B8000020580000204C000020A7
:100D400040000020680D000000000020D0000000DE
:100D5000080D0000380E0000D0000020F006000052
:100D6000180D000000000000006CDC0230000000E4
:100D7000006CDC020600FF0901A1011901294015E0
:100D80000026FF0075089540810019012940910057
:100D9000C000000008000000B3000020C4000020D4
:100DA0009F00002000000000120000000000000072
:100DB000000000001D000000000000000000000016
:100DC000050F0C00010510020200000009022900B5
:100DD0000101008032090400000203000000092123
:100DE00010010001221D00070581034000010705D5
:100DF00002034000011201100100000008E607E6AE
:100E000007000001020001140342006F006F00742C
:100E10000020004D006F0064006500040309040019
:100E20000C00002000000000000000000B03540034
:080E300065007300740000006E
:0400000500000155A1
:00000001FF
